:100000000C942A000C943F000C943F000C943F0089
:100010000C943F000C943F000C943F000C943F0064
:100020000C943F000C943F000C943F000C943F0054
:100030000C943F000C943F000C943F000C943F0044
:100040000C943F000C943F000C943F000C943F0034
:100050000C943F0011241FBECFE5D8E0DEBFCDBF1A
:1000600010E0A0E6B0E0ECE3F4E002C005900D92F1
:10007000AC37B107D9F70E9441000C941C020C94D4
:100080000000DF93CF930F92CDB7DEB7E7E3F0E048
:100090008FEF808360E875E280E090E00E94360197
:1000A0000E946B000E94A90189838981813341F4F8
:1000B00080E690E00E94CF0181E00E94A800F2CF8C
:1000C0008981823379F78EE690E00E94CF0184E047
:1000D0000E94A800E7CFDF93CF93CDB7DEB7E7E369
:1000E000F0E080EB8083A7E3B0E0E7E3F0E080811D
:1000F0008F7B8C93EDE2F0E083E78083AEE2B0E0AB
:10010000EEE2F0E0808181608C93CF91DF910895E1
:10011000DF93CF93CDB7DEB7A7E3B0E0E7E3F0E03E
:1001200080818F748C93A7E3B0E0E7E3F0E08081F7
:1001300080648C93EDE2F0E083E68083AEE2B0E091
:10014000EEE2F0E0808181608C93CF91DF910895A1
:10015000DF93CF930F92CDB7DEB78983EFE2F0E064
:1001600089818083EEE2F0E080818823DCF70F90C4
:10017000CF91DF910895DF93CF93CDB7DEB7EEE255
:10018000F0E080818823DCF7EFE2F0E08081CF911E
:10019000DF910895DF93CF9300D00F92CDB7DEB7F4
:1001A0009B838A8319820EC08981282F30E08A813F
:1001B0009B81FC01E20FF31F80810E94A8008981CE
:1001C0008F5F89838981282F30E08A819B81FC01A0
:1001D000E20FF31F8081882339F70F900F900F9063
:1001E000CF91DF9108950F931F93DF93CF9300D0AA
:1001F0000F92CDB7DEB79B838A8319828981282F1E
:1002000030E08A819B818C01020F131F0E94BB008A
:10021000F80180830FC089818F5F89838981282FAE
:1002200030E08A819B818C01020F131F0E94BB006A
:10023000F80180838981282F30E08A819B81FC012D
:10024000E20FF31F8081833231F78981282F30E05C
:100250008A819B81FC01E20FF31F10820F900F90A7
:100260000F90CF91DF911F910F9108950F931F93DE
:10027000DF93CF9300D000D0CDB7DEB769837A8308
:100280008B839C83AAE2B0E0EAE2F0E0808188619F
:100290008C93A0E4B0E0E0E4F0E0808186688C9389
:1002A00009E210E089819A81AB81BC81880F991F96
:1002B000AA1FBB1F880F991FAA1FBB1F880F991F5A
:1002C000AA1FBB1F880F991FAA1FBB1F9C01AD014E
:1002D00080E094E2A4EFB0E0BC01CD010E94FA01FD
:1002E000DA01C9018150F801808300E410E08981BE
:1002F0009A81AB81BC81880F991FAA1FBB1F880FF1
:10030000991FAA1FBB1F880F991FAA1FBB1F880F09
:10031000991FAA1FBB1F9C01AD0180E094E2A4EFCE
:10032000B0E0BC01CD010E94FA01DA01C9010197D8
:10033000A109B109892F9A2FAB2FBB27F801808320
:100340000F900F900F900F90CF91DF911F910F9111
:100350000895DF93CF93CDB7DEB7EBE2F0E0808175
:100360008823DCF7ECE2F0E08081CF91DF91089503
:10037000DF93CF930F92CDB7DEB78983ECE2F0E045
:1003800089818083EBE2F0E08081882F90E08072A9
:1003900090700097B9F30F90CF91DF910895DF939C
:1003A000CF9300D000D0CDB7DEB79C838B831A8269
:1003B00019820FC029813A818B819C81FC01E20F57
:1003C000F31F80810E94B80189819A8101969A83E6
:1003D000898329813A818B819C81FC01E20FF31F83
:1003E0008081882339F70F900F900F900F90CF9155
:1003F000DF910895A1E21A2EAA1BBB1BFD010DC0BF
:10040000AA1FBB1FEE1FFF1FA217B307E407F507C4
:1004100020F0A21BB30BE40BF50B661F771F881FA0
:10042000991F1A9469F760957095809590959B0136
:0C043000AC01BD01CF010895F894FFCF8E
:10043C004C4544315F4F4E2F4F4646200A004C45E9
:0C044C0044325F4F4E2F4F4646200A00FE
:00000001FF
